:100000001CC036C035C034C033C032C031C030C06F
:100010002FC02EC02DC02CC02BC02AC029C028C084
:1000200027C026C025C024C023C022C021C020C0B4
:100030001FC01EC032373834340011241FBECFEF2A
:10004000D4E0DEBFCDBF11E0A0E0B1E0EAE8FCE023
:1000500002C005900D92AC35B107D9F711E0ACE5BF
:10006000B1E001C01D92A336B107E1F7D0D10BC6B4
:10007000C7CF282F22952F709AE0299F9001112435
:100080008F70820F0895482F6AE01ED3282F30E02A
:1000900084E0220F331F8A95E1F7842F15D3892F2F
:1000A000822B089587E380935D018BE380935E014B
:1000B00087E180935F018FE1809361018CE0809301
:1000C0005C0184E18093600184E08093620180EDB3
:1000D000C7D280E0C8D280915D01D5DF8F77C3D2CF
:1000E00080915E01D0DFBFD280915F01CCDFBBD2B7
:1000F00080916201B8D280916101C5DFB4D2809154
:100100005C01C1DFB0D280916001BDDFACD2D4D23E
:1001100008950F931F93182F062F80EDA1D28823E7
:1001200029F4812FA0D2802F9ED2C6D21F910F9189
:1001300008951F9380ED94D2882311F081E056C07A
:1001400080E091D280EDA1D2A3D2282F2F772295E3
:100150002F701AE0219F900111248F70820F8093DD
:100160005D0196D2282F22952F70219F9001112496
:100170008F70820F80935E018BD2282F2F7B229568
:100180002F70219F900111248F70820F80935F0147
:100190007FD2282F22952F70219F900111248F70DC
:1001A000820F8093620174D2282F22952F70219F95
:1001B000900111248F70820F8093610169D2282FE2
:1001C00022952F70219F900111248F70820F8093B0
:1001D0005C0168D2282F22952F70219F9001112455
:1001E0008F70820F8093600167D280E01F91089525
:1001F0001F93182F80ED34D2882311F010E007C030
:10020000812F31D280ED41D24DD2182F55D2812F7E
:100210001F9108951F9380E0EBDF182F80ED20D20F
:10022000882311F081E027C080E01DD217FF05C0B0
:1002300080915D0128DF806804C080915D0123DF2B
:100240008F7711D280915E011EDF0DD280915F0108
:100250001ADF09D28091620106D28091610113DF19
:1002600002D280915C010FDFFED1809160010BDF33
:10027000FAD122D280E01F9108951F93182F80E0B9
:10028000B7DF112319F0682F6F7702C0682F6068FD
:1002900080E03FDF1F910895EF92FF920F931F932D
:1002A000DF93CF93CDB7DEB760970FB6F894DEBF7C
:1002B0000FBECDBF8DB79EB70E970FB6F8949EBFF9
:1002C0000FBE8DBFEDB7FEB731968E010F5F1F4F8A
:1002D000ADB7BEB712961C930E93119720E1E22E94
:1002E000F12CF382E28280E091E095838483809117
:1002F0005F018683178280915E01808711868091DD
:100300005D01828713868091600184871586E8D11C
:10031000EDB7FEB73E960FB6F894FEBF0FBEEDBF29
:10032000E6D0C8013AD120916201822F81508830F5
:1003300008F03FC08DB79EB70C970FB6F8949EBFDC
:100340000FBE8DBFADB7BEB71196EDB7FEB7128326
:1003500001831396FC92EE92129787E191E0159635
:100360009C938E9314978091610116968C931697A7
:1003700017961C92179780915C0118968C9318978A
:1003800019961C921997E22FF0E0EE0FFF1FE75B22
:10039000FE4F808191811B969C938E931A97A0D1DA
:1003A0008DB79EB70C960FB6F8949EBF0FBE8DBF4B
:1003B0001BC000D000D000D0EDB7FEB73196ADB76E
:1003C000BEB712961C930E931197F382E28285E2D8
:1003D00091E09583848384D1EDB7FEB736960FB64E
:1003E000F894FEBF0FBEEDBF80E062E0C1D0CE0149
:1003F0000196D3D060960FB6F894DEBF0FBECDBF86
:10040000CF91DF911F910F91FF90EF9008951F936F
:10041000CF93DF933ED072D081E06AE00FD181E0CC
:100420002CDF11E0C8ECD0E088EE93E0FE013197BC
:10043000F1F70197D9F77DDE2FDF189916C080E01C
:10044000112309F481E0182F18DF84EF91E0FE01F9
:100450003197F1F70197D9F7189BFECF84EF91E020
:10046000FE013197F1F70197D9F71999DDCF1ADE1F
:1004700084EF91E0FE013197F1F70197D9F7189BCE
:10048000FECF84EF91E0FE013197F1F70197D9F7A4
:10049000CBCF20982198289A299A389A4098089585
:1004A0009BB19F709BB99BB1807F892B8BB95B9A65
:1004B00085E38A95F1F75B9808951F93182F5A9A50
:1004C000EFDF812F8295807FEBDF8AE78A95F1F756
:1004D0001F9108951F93182F5A98E2DF812F82955C
:1004E000807FDEDF80E78A95F1F71F91089581E034
:1004F000F1DF80EA9FE00197F1F708950F931F93D2
:100500008AB18C6F8AB98BB183708BB980E395E720
:100510000197F1F780E3C4DF00E117E2C80101971A
:10052000F1F75B9A25E3822F8A95F1F75B9880EDCE
:1005300097E0FC013197F1F75B9A2A95F1F75B9808
:100540000197F1F780E2ACDFC8010197F1F788E28B
:10055000C1DF8CE0BFDF86E0BDDFC9DF1F910F91F7
:10056000089582E0B7DF80EA9FE00197F1F70895F0
:10057000623061F0633018F4613071F405C06330AB
:1005800039F0643049F406C0805805C0805403C077
:10059000805701C080539EDF0895CF93DF93EC0115
:1005A00002C021968ADF88818823D9F7DF91CF9115
:1005B00008950F931F93CF93DF938B01880F880FBC
:1005C000880F806487DFC0E0D0E0F801EC0FFD1FEA
:1005D000808173DF2196C830D105B9F7DF91CF91C3
:1005E0001F910F910895982F84EA8093BC00809109
:1005F000BC0087FFFCCF8091B900887F883039F03C
:100600008091B900887F803111F081E00895909346
:10061000BB0084E88093BC008091BC0087FFFCCFC6
:100620008091B900887F883139F08091B900887F46
:10063000803411F082E0089580E008956B3008F472
:100640006BE03D983C98882319F0459A449A02C083
:10065000459844986093B80081E08093B90008956C
:100660008E7FC1DF08958093BB0084E88093BC0037
:100670008091BC0087FFFCCF8091B90090E0887F1B
:10068000883209F091E0892F08958160ACDF0895E8
:1006900084EC8093BC008091BC0087FFFCCF8091EC
:1006A000BB00089584E88093BC008091BC0087FF64
:1006B000FCCF8091BB00089584E98093BC008091B9
:1006C000BC0084FDFCCF0895991B79E004C0991FFC
:1006D000961708F0961B881F7A95C9F7809508959C
:1006E000AEE0B0E0E5E7F3E0A5C20D891E898F8991
:1006F000988D97FF02C080E090E801979E838D83DC
:100700001A83098386E08C839E01255E3F4FCE01CC
:100710000196698D7A8DA90111D04D815E8157FDB9
:100720000AC02F813885421753070CF49A01020F33
:10073000131FF80110822E96E4E098C2ABE0B0E0FF
:10074000E3EAF3E069C23C012B015A01FC01178284
:100750001682838181FD03C06FEF7FEFB9C19AE0FC
:10076000892E1E010894211C311CF3012381F20102
:1007700023FD859123FF81912F01882309F4A5C1D1
:10078000853239F423FD859123FF81912F01853234
:1007900021F490E0B301B6D1E8CF982FFF24EE24E6
:1007A0009924FFE1FF15D0F09B3269F09C3228F4C8
:1007B000903259F0933291F40EC09D3249F090334B
:1007C00069F441E024C052E0F52A84E0F82A28C008
:1007D00098E0F92A25C0E0E1FE2A22C0F7FC29C0F2
:1007E000892F80538A3070F4F6FE05C0989C902CB7
:1007F0001124980E15C0E89CE02C1124E80EF0E2BC
:10080000FF2A0EC09E3229F4F6FC5FC140E4F42AB0
:1008100007C09C3619F450E8F52A02C0983649F40E
:10082000F20123FD959123FF91912F01992309F066
:10083000B8CF892F8554833018F08052833038F434
:1008400044E050E0A40EB51E5FE359830FC0933619
:1008500031F0933779F0933509F052C01FC0F5019C
:100860008081898342E050E0A40EB51E610101E061
:1008700010E011C0F501C080D180F6FC03C06FEF1D
:100880007FEF02C0692D70E042E050E0A40EB51E7B
:10089000C6012DD18C015FE7F52213C0F501C080A0
:1008A000D180F6FC03C06FEF7FEF02C0692D70E0CE
:1008B00042E050E0A40EB51EC6010ED18C0150E8F6
:1008C000F52AF3FE06C018C080E290E0B3011AD109
:1008D000EA948E2D90E008171907B0F30DC0F601C9
:1008E000F7FC8591F7FE81916F0190E0B3010AD189
:1008F000E110EA94015010400115110581F7E2C0A2
:10090000943611F0993661F5F7FE08C0F5012081A3
:1009100031814281538184E090E00AC0F5018081F9
:1009200091819C01442737FD4095542F82E090E04F
:10093000A80EB91E9FE6F92257FF09C050954095B1
:10094000309521953F4F4F4F5F4FE0E8FE2ACA0197
:10095000B901A1012AE030E001D1D82ED2183FC060
:10096000953729F41F2D1F7E2AE030E01DC01F2D72
:10097000197F9F3661F0903720F4983509F0A5C0B3
:100980000FC0903739F0983709F09FC004C028E0B5
:1009900030E00AC0106114FD146020E130E004C0B2
:1009A00014FD166020E132E017FF08C0F5016081F8
:1009B00071818281938144E050E008C0F50180811B
:1009C0009181BC0180E090E042E050E0A40EB51EB1
:1009D000A101C4D0D82ED2188FE7F82EF122F6FE4E
:1009E0000BC05EEFF522D91438F4F4FE07C0F2FC18
:1009F00005C08FEEF82202C01D2D01C0192DF4FE96
:100A00000DC0FE01ED0DF11D8081803319F499EECA
:100A1000F92208C01F5FF2FE05C003C08F2D867843
:100A200009F01F5F0F2DF3FC13C0F0FE0EC01E1562
:100A300010F09D2C0AC09D2C9E0C911A1E2D05C0F5
:100A400080E290E0B3015ED01F5F1E15C8F304C0C2
:100A50001E1510F4E11A01C0EE2404FF0EC080E35D
:100A600090E0B3014FD002FF1BC001FD03C088E737
:100A700090E00EC088E590E00BC0802F867881F072
:100A800001FF02C08BE201C080E2F7FC8DE290E042
:100A9000B30138D005C080E390E0B30133D09A941D
:100AA000D914C8F3DA94F101ED0DF11D808190E0C5
:100AB000B30128D0DD20B1F705C080E290E0B3019A
:100AC00021D0EA94EE20C9F750CEF30166817781F8
:100AD000CB012B96E2E1BCC0FC0105906150704057
:100AE0000110D8F7809590958E0F9F1F0895FC01F7
:100AF0006150704001900110D8F7809590958E0F4D
:100B00009F1F08950F931F93CF93DF938C01EB01E9
:100B10008B8181FF1BC082FF0DC02E813F818C81A4
:100B20009D812817390764F4E881F9810193F983DD
:100B3000E88306C0E885F985802F0995892B31F473
:100B40008E819F8101969F838E8302C00FEF1FEFDE
:100B5000C801DF91CF911F910F910895FA01AA2743
:100B6000283051F1203181F1E8946F936E7F6E5FF0
:100B70007F4F8F4F9F4FAF4FB1E03ED0B4E03CD09E
:100B8000670F781F891F9A1FA11D680F791F8A1F81
:100B9000911DA11D6A0F711D811D911DA11D20D0E8
:100BA00009F468943F912AE0269F11243019305DA2
:100BB0003193DEF6CF010895462F4770405D419393
:100BC000B3E00FD0C9F7F6CF462F4F70405D4A33E0
:100BD00018F0495D31FD4052419302D0A9F7EACFA8
:100BE000B4E0A6959795879577956795BA95C9F7D7
:100BF00000976105710508959B01AC010A2E0694CA
:100C00005795479537952795BA95C9F7620F731F82
:100C1000841F951FA01D08952F923F924F925F92BF
:100C20006F927F928F929F92AF92BF92CF92DF92FC
:100C3000EF92FF920F931F93CF93DF93CDB7DEB761
:100C4000CA1BDB0B0FB6F894DEBF0FBECDBF0994F5
:100C50002A88398848885F846E847D848C849B844C
:100C6000AA84B984C884DF80EE80FD800C811B815A
:100C7000AA81B981CE0FD11D0FB6F894DEBF0FBE89
:0A0C8000CDBFED010895F894FFCFF9
:100C8A00253032643A253032643A253032642020E5
:100C9A0032302530326400253032642E25303264F9
:100CAA0020202573004572726F72004D6F6E0054DA
:100CBA00756500576564005468750046726900538B
:100CCA0061740053756E00457272002B012F013357
:0C0CDA000137013B013F014301470100CD
:00000001FF
