:100000001CC036C035C034C033C032C031C030C06F
:100010002FC02EC02DC02CC02BC02AC029C028C084
:1000200027C026C025C024C023C022C021C020C0B4
:100030001FC01EC032373834340011241FBECFEF2A
:10004000D4E0DEBFCDBF12E0A0E0B1E0E2EAF3E130
:1000500002C005900D92A231B107D9F712E0A2E1DA
:10006000B2E001C01D92A931B107E1F7C8D497C928
:10007000C7CF282F22952F709AE0299F9001112435
:100080008F70820F0895482F6AE074D6282F30E0D1
:1000900084E0220F331F8A95E1F7842F6BD6892FD6
:1000A000822B089580911302823350F06AE062D669
:1000B00090931302809114028F5F8093140203C007
:1000C000865F80931302809114028C3338F0109273
:1000D0001402809115028F5F80931502089560E0ED
:1000E00020E030E040E050E080917A00806C809326
:1000F0007A0080917A0086FDFCCF80917800909103
:100100007900A0E0B0E0280F391F4A1F5B1F6F5F26
:10011000603851F79CE056954795379527959A9505
:10012000D1F7205E3C4F4F4F5F4FCA01B9012BE121
:1001300030E040E050E0FFD524E630E040E050E021
:1001400039D6C9010895582F4091130290E00996BD
:10015000242F30E08217930734F080911402861721
:1001600011F431E017C02091140230E0862F90E0A6
:1001700001962817390711F030E00CC030E0842FC9
:100180006AE0F8D5292F852FF5D5291708F031E039
:1001900081E03827832F0895CF92DF92EF92FF926C
:1001A0000F931F93DF93CF93CDB7DEB760970FB652
:1001B000F894DEBF0FBECDBF6C018DB79EB70E9712
:1001C0000FB6F8949EBF0FBE8DBFEDB7FEB7319648
:1001D0008E010F5F1F4FADB7BEB712961C930E93E3
:1001E000119720E1E22EF12CF382E28280E091E08F
:1001F00095838483809115028683178280911402EF
:10020000808711868091130282871386809116025F
:1002100084871586F1D58DB79EB70E960FB6F894E4
:100220009EBF0FBE8DBF9AD4C801EED4ADB7BEB786
:100230001E970FB6F894BEBF0FBEADBFEDB7FEB7A9
:10024000319612961C930E931197F382E28287E106
:1002500091E0958384838091170286831782809131
:10026000120280871186C6016AE070E08FD573871D
:100270006287C6016AE070E089D595878487BCD51E
:100280008DB79EB70E960FB6F8949EBF0FBE8DBF6A
:1002900080E062E0A4D4C801B7D460960FB6F894A9
:1002A000DEBF0FBECDBFCF91DF911F910F91FF90A9
:1002B000EF90DF90CF900895FF920F931F93F82E49
:1002C000092F162F82EA03D5812F04D5802F02D55E
:1002D0008F2D00D528D580E29EE40197F1F71F917C
:1002E0000F91FF9008950F931F93082F162F82EA06
:1002F000EED4812FEFD4802FEDD415D580E29EE48B
:100300000197F1F71F910F910895CF93DF93C0E00C
:10031000D0E080E06C2FE7DF219681E0C030D80785
:10032000C1F71CD48AE291E06FD480E197E228EC17
:1003300030E0F9013197F1F70197D9F7DF91CF91CB
:1003400008950F931F93182F062F80EDC0D4882394
:1003500029F4812FBFD4802FBDD4E5D41F910F91F4
:1003600008950F931F93182F82EAB1D4812FB2D42E
:1003700082EAC2D4C4D4182FCCD4082FD4D4312FBD
:1003800020E0200F311DC9011F910F9108951F9387
:10039000182F82EA9CD4812F9DD482EAADD4B9D49F
:1003A000182FC1D4812F1F910895CF93DF93C0E000
:1003B000D0E08C2FECDF882311F080E006C021967E
:1003C00081E0C030D807A9F781E0DF91CF9108958F
:1003D0001F9380ED7CD4882311F081E056C080E02B
:1003E00079D480ED89D48BD4282F2F7722952F7044
:1003F0001AE0219F900111248F70820F80931302C5
:100400007ED4282F22952F70219F900111248F7068
:10041000820F8093140273D4282F2F7322952F708C
:10042000219F900111248F70820F8093150267D451
:10043000282F22952F70219F900111248F70820FF9
:10044000809318025CD4282F22952F70219F900151
:1004500011248F70820F8093170251D4282F229578
:100460002F70219F900111248F70820F80931202B0
:1004700050D4282F22952F70219F900111248F7026
:10048000820F809316024FD480E01F9108952F921F
:100490003F924F925F926F927F928F929F92AF9214
:1004A000BF92CF92DF92EF92FF920F931F93DF9351
:1004B000CF93CDB7DEB761970FB6F894DEBF0FBE0E
:1004C000CDBF189BFECF84EF91E028EC30E0F9011E
:1004D0003197F1F70197D9F768DF882371F03ED3A0
:1004E00089E391E091D380E197E228EC30E0F901D3
:1004F0003197F1F70197D9F77BC180E048DFB8EC7D
:100500006B2E712C482E55245E010894A11CB11C41
:10051000A0E18A2E912CF8E52F2EF1E03F2E88EEF7
:1005200093E0F3013197F1F70197D9F717D38DB71E
:100530009EB708970FB6F8949EBF0FBE8DBFEDB75C
:10054000FEB73196ADB7BEB71296BC92AE92119778
:100550009382828286E491E09583848357824682E7
:100560004BD4ADB7BEB718960FB6F894BEBF0FBE4A
:10057000ADBFC50149D380E062E031D329DFF090FF
:100580001502E0901402D0901302A9DD8C01A7DDC2
:100590009C018DB79EB740970FB6F8949EBF0FBED3
:1005A0008DBFEDB7FEB73196ADB7BEB71296BC9210
:1005B000AE9211979382828235822482F6821782CC
:1005C000E0861186D2861386C8016AE070E0DED329
:1005D00075876487C9016AE070E0D8D397878687FA
:1005E0000BD48DB79EB740960FB6F8949EBF0FBE42
:1005F0008DBFC50109D3189B02C0199990CF84EF14
:1006000091E0F3013197F1F70197D9F783B113C066
:10061000189911C019990FC078DE189902C0199B5A
:10062000FCCF84EF91E028EC30E0F9013197F1F74D
:100630000197D9F7DDC0189BEBCF199BE9CF80FD5F
:100640006ECF84EF91E028EC30E0F9013197F1F7BB
:100650000197D9F781E09BDE8093160282E097DE56
:100660008093120283E093DE8093170284E08FDE92
:100670008093150285E08BDE8093140286E087DE8E
:1006800080931302198AE1E0EE2EF12C78ECC72E4C
:10069000D12C5E010894A11CB11C60E1862E912C26
:1006A00051E7252E51E0352E4FE7642E41E0742EA0
:1006B00088EE93E0F6013197F1F70197D9F7C7017A
:1006C0000197880F991F895F4CDE8C0147D2ADB727
:1006D000BEB71A970FB6F894BEBF0FBEADBFEDB749
:1006E000FEB731961296BC92AE9211979382828297
:1006F00035822482C8016AE070E048D3778366833C
:10070000C8016AE070E042D39187808775D38DB7C6
:100710009EB70A960FB6F8949EBF0FBE8DBFC50157
:1007200073D280E062E05BD2ADB7BEB71C970FB664
:10073000F894BEBF0FBEADBFEDB7FEB731961296AF
:10074000BC92AE921197938282827582648280916C
:10075000150286831782809114028087118680910A
:1007600013028287138648D38DB79EB70C960FB6B7
:10077000F8949EBF0FBE8DBFC50146D2189B02C024
:10078000199996CF84EF91E0F6013197F1F701972F
:10079000D9F7189916C091E0998B13C0189911C018
:1007A00019990FC0B2DD189902C0199BFCCF84EFD4
:1007B00091E028EC30E0F9013197F1F70197D9F792
:1007C00017C0189BEBCF199BE9CFA989A13009F07D
:1007D0006FCF84EF91E0F6013197F1F70197D9F7E8
:1007E000E414F50429F00894E11CF11C5BDC60CFF3
:1007F00061960FB6F894DEBF0FBECDBFCF91DF91EB
:100800001F910F91FF90EF90DF90CF90BF90AF902E
:100810009F908F907F906F905F904F903F902F9020
:1008200008952F923F924F925F927F928F929F9264
:10083000AF92BF92CF92DF92EF92FF920F931F93EE
:10084000DF93CF93CDB7DEB760970FB6F894DEBFD6
:100850000FBECDBFAADD882371F480D184E991E079
:10086000D3D180E197E228EC30E0F9013197F1F73C
:100870000197D9F7ACC08091160261E034DD809118
:10088000120262E030DD8091170263E02CDD80917E
:10089000150264E028DD8091140265E024DD80917A
:1008A000130266E020DD80E197E228EC30E0F901F8
:1008B0003197F1F70197D9F797E0D92E81E0E82E2B
:1008C000F12C5E010894A11CB11C00E1202E312CFA
:1008D00014EB412E11E0512E7090140280901302FF
:1008E000FEDB9E2CCF2C6D2DE7DC8E2D60E0FBDC3B
:1008F00052C088EE93E0E8ECF0E03197F1F7019711
:10090000D1F7EDDB8C012AD185EA91E07DD180E041
:1009100062E065D18DB79EB70C970FB6F8949EBF75
:100920000FBE8DBFEDB7FEB73196ADB7BEB712960D
:10093000BC92AE9211973382228255824482968273
:10094000C782C8016AE070E021D271876087C80160
:100950006AE070E01BD2938782874ED28DB79EB734
:100960000C960FB6F8949EBF0FBE8DBFC5014CD13B
:10097000189910C019990EC0F1D083EC91E044D1C0
:1009800080E197E228EC30E0F9013197F1F7019727
:10099000D9F71DC01DDD882D672DD5DB882309F013
:1009A000A8CF92E0D90E0894E11CF11CAFEFDA1643
:1009B00009F092CFD3D082ED91E026D180E197E289
:1009C00028EC30E0F9013197F1F70197D9F76096FB
:1009D0000FB6F894DEBF0FBECDBFCF91DF911F9150
:1009E0000F91FF90EF90DF90CF90BF90AF909F90CE
:1009F0008F907F905F904F903F902F9008950F932E
:100A00001F93CF93DF937ED0B0D081E06AE04DD1C9
:100A100080917C00806C80937C0086E080937A00DB
:100A200080917A00806C80937A0028EE33E0C8ECE5
:100A3000D0E005C0CE010197F1F7215030402115DB
:100A40003105C1F74CDB8C01C3DCC801A5DB189B69
:100A50001EDD199BE6DE28EE33E0ECCF1F93182F46
:100A600080ED35D1882311F010E007C0812F32D1FD
:100A700080ED42D14ED1182F56D1812F1F9108956C
:100A80001F9380E0EBDF182F80ED21D1882311F038
:100A900081E027C080E01ED117FF05C080911302BE
:100AA000F2DA806804C080911302EDDA8F7712D1F8
:100AB00080911402E8DA0ED180911502E4DA0AD1AD
:100AC0008091180207D180911702DDDA03D180915D
:100AD0001202D9DAFFD080911602D5DAFBD023D1E9
:100AE00080E01F9108951F93182F80E0B7DF112336
:100AF00019F0682F6F7702C0682F606880E021DCF2
:100B00001F91089520982198289A299A08959BB1B9
:100B10009F709BB99BB1807F892B8BB95B9A85E3D2
:100B20008A95F1F75B9808951F93182F5A9AEFDF73
:100B3000812F8295807FEBDF8AE78A95F1F71F91FD
:100B400008951F93182F5A98E2DF812F8295807F96
:100B5000DEDF80E78A95F1F71F91089581E0F1DFEC
:100B600080EA9FE00197F1F708950F931F938AB1F0
:100B70008C6F8AB98BB183708BB980E395E701974D
:100B8000F1F780E3C4DF00E117E2C8010197F1F754
:100B90005B9A25E3822F8A95F1F75B9880ED97E0C9
:100BA000FC013197F1F75B9A2A95F1F75B98019771
:100BB000F1F780E2ACDFC8010197F1F788E2C1DF0D
:100BC0008CE0BFDF86E0BDDFC9DF1F910F91089584
:100BD00082E0B7DF80EA9FE00197F1F70895623085
:100BE00061F0633018F4613071F405C0633039F09E
:100BF000643049F406C0805805C0805403C0805753
:100C000001C080539EDF0895CF93DF93EC0102C0B3
:100C100021968ADF88818823D9F7DF91CF910895C3
:100C20000F931F93CF93DF938B01880F880F880F4B
:100C3000806487DFC0E0D0E0F801EC0FFD1F808109
:100C400073DF2196C830D105B9F7DF91CF911F919D
:100C50000F910895982F84EA8093BC008091BC0086
:100C600087FFFCCF8091B900887F883039F0809170
:100C7000B900887F803111F081E008959093BB0026
:100C800084E88093BC008091BC0087FFFCCF8091FA
:100C9000B900887F883139F08091B900887F80342D
:100CA00011F082E0089580E008956B3008F46BE065
:100CB0003D983C98882319F0459A449A02C045987B
:100CC00044986093B80081E08093B90008958E7FC6
:100CD000C1DF08958093BB0084E88093BC008091BD
:100CE000BC0087FFFCCF8091B90090E0887F8832FC
:100CF00009F091E0892F08958160ACDF089584ECBC
:100D00008093BC008091BC0087FFFCCF8091BB002A
:100D1000089584E88093BC008091BC0087FFFCCFDD
:100D20008091BB00089584E98093BC008091BC0051
:100D300084FDFCCF0895629FD001739FF001829FD4
:100D4000E00DF11D649FE00DF11D929FF00D839F5A
:100D5000F00D749FF00D659FF00D9927729FB00DF7
:100D6000E11DF91F639FB00DE11DF91FBD01CF010A
:100D700011240895991B79E004C0991F961708F073
:100D8000961B881F7A95C9F780950895AA1BBB1BEF
:100D900051E107C0AA1FBB1FA617B70710F0A61B7B
:100DA000B70B881F991F5A95A9F780959095BC019C
:100DB000CD010895A1E21A2EAA1BBB1BFD010DC097
:100DC000AA1FBB1FEE1FFF1FA217B307E407F507FB
:100DD00020F0A21BB30BE40BF50B661F771F881FD7
:100DE000991F1A9469F760957095809590959B016D
:100DF000AC01BD01CF010895AEE0B0E0E1E0F7E065
:100E0000A5C20D891E898F89988D97FF02C080E049
:100E100090E801979E838D831A83098386E08C83F3
:100E20009E01255E3F4FCE010196698D7A8DA90105
:100E300011D04D815E8157FD0AC02F813885421740
:100E400053070CF49A01020F131FF80110822E961B
:100E5000E4E098C2ABE0B0E0EFE2F7E069C23C0149
:100E60002B015A01FC0117821682838181FD03C088
:100E70006FEF7FEFB9C19AE0892E1E010894211C03
:100E8000311CF3012381F20123FD859123FF819120
:100E90002F01882309F4A5C1853239F423FD8591FA
:100EA00023FF81912F01853221F490E0B301B6D167
:100EB000E8CF982FFF24EE249924FFE1FF15D0F00E
:100EC0009B3269F09C3228F4903259F0933291F4BD
:100ED0000EC09D3249F0903369F441E024C052E0E5
:100EE000F52A84E0F82A28C098E0F92A25C0E0E134
:100EF000FE2A22C0F7FC29C0892F80538A3070F463
:100F0000F6FE05C0989C902C1124980E15C0E89C04
:100F1000E02C1124E80EF0E2FF2A0EC09E3229F4E4
:100F2000F6FC5FC140E4F42A07C09C3619F450E88F
:100F3000F52A02C0983649F4F20123FD959123FF6A
:100F400091912F01992309F0B8CF892F85548330CF
:100F500018F08052833038F444E050E0A40EB51EFF
:100F60005FE359830FC0933631F0933779F09335AF
:100F700009F052C01FC0F5018081898342E050E032
:100F8000A40EB51E610101E010E011C0F501C080A2
:100F9000D180F6FC03C06FEF7FEF02C0692D70E0D7
:100FA00042E050E0A40EB51EC6012DD18C015FE7D2
:100FB000F52213C0F501C080D180F6FC03C06FEFAD
:100FC0007FEF02C0692D70E042E050E0A40EB51E34
:100FD000C6010ED18C0150E8F52AF3FE06C018C0F8
:100FE00080E290E0B3011AD1EA948E2D90E00817C8
:100FF0001907B0F30DC0F601F7FC8591F7FE81915A
:101000006F0190E0B3010AD1E110EA940150104061
:101010000115110581F7E2C0943611F0993661F59A
:10102000F7FE08C0F501208131814281538184E0BF
:1010300090E00AC0F501808191819C01442737FD31
:101040004095542F82E090E0A80EB91E9FE6F92249
:1010500057FF09C050954095309521953F4F4F4F10
:101060005F4FE0E8FE2ACA01B901A1012AE030E0A1
:1010700001D1D82ED2183FC0953729F41F2D1F7EDD
:101080002AE030E01DC01F2D197F9F3661F0903798
:1010900020F4983509F0A5C00FC0903739F0983783
:1010A00009F09FC004C028E030E00AC0106114FDC0
:1010B000146020E130E004C014FD166020E132E04D
:1010C00017FF08C0F501608171818281938144E03E
:1010D00050E008C0F50180819181BC0180E090E082
:1010E00042E050E0A40EB51EA101C4D0D82ED21803
:1010F0008FE7F82EF122F6FE0BC05EEFF522D91431
:1011000038F4F4FE07C0F2FC05C08FEEF82202C0EE
:101110001D2D01C0192DF4FE0DC0FE01ED0DF11DB8
:101120008081803319F499EEF92208C01F5FF2FE26
:1011300005C003C08F2D867809F01F5F0F2DF3FCCB
:1011400013C0F0FE0EC01E1510F09D2C0AC09D2C81
:101150009E0C911A1E2D05C080E290E0B3015ED076
:101160001F5F1E15C8F304C01E1510F4E11A01C05C
:10117000EE2404FF0EC080E390E0B3014FD002FFE5
:101180001BC001FD03C088E790E00EC088E590E039
:101190000BC0802F867881F001FF02C08BE201C076
:1011A00080E2F7FC8DE290E0B30138D005C080E327
:1011B00090E0B30133D09A94D914C8F3DA94F101D2
:1011C000ED0DF11D808190E0B30128D0DD20B1F755
:1011D00005C080E290E0B30121D0EA94EE20C9F787
:1011E00050CEF30166817781CB012B96E2E1BCC042
:1011F000FC010590615070400110D8F780959095E2
:101200008E0F9F1F0895FC016150704001900110E6
:10121000D8F7809590958E0F9F1F08950F931F9379
:10122000CF93DF938C01EB018B8181FF1BC082FF89
:101230000DC02E813F818C819D812817390764F470
:10124000E881F9810193F983E88306C0E885F9858F
:10125000802F0995892B31F48E819F8101969F8380
:101260008E8302C00FEF1FEFC801DF91CF911F9156
:101270000F910895FA01AA27283051F1203181F108
:10128000E8946F936E7F6E5F7F4F8F4F9F4FAF4F8E
:10129000B1E03ED0B4E03CD0670F781F891F9A1FA1
:1012A000A11D680F791F8A1F911DA11D6A0F711D55
:1012B000811D911DA11D20D009F468943F912AE061
:1012C000269F11243019305D3193DEF6CF01089549
:1012D000462F4770405D4193B3E00FD0C9F7F6CF7A
:1012E000462F4F70405D4A3318F0495D31FD405242
:1012F000419302D0A9F7EACFB4E0A69597958795D8
:1013000077956795BA95C9F70097610571050895B6
:101310009B01AC010A2E0694579547953795279562
:10132000BA95C9F7620F731F841F951FA01D0895FA
:101330002F923F924F925F926F927F928F929F92E5
:10134000AF92BF92CF92DF92EF92FF920F931F93D3
:10135000CF93DF93CDB7DEB7CA1BDB0B0FB6F89484
:10136000DEBF0FBECDBF09942A88398848885F84C4
:101370006E847D848C849B84AA84B984C884DF8035
:10138000EE80FD800C811B81AA81B981CE0FD11D19
:101390000FB6F894DEBF0FBECDBFED010895F894EF
:0213A000FFCF7D
:1013A200253032643A253032643A253032642020C6
:1013B20032302530326400253032642E25303264DA
:1013C200202025642E25642043004D656D6F7279BF
:1013D20020436C6561726564004D656D6F727920A2
:1013E200456D707479005265636F7264696E67202F
:1013F2003D20253033642000253032643A253032D6
:10140200643A253032642D253032642E256420431F
:101412000054656D703A2025642E256420430054E3
:10142200696D653A20253032643A253032643A25B6
:10143200303264004D656D6F7279206E6F74206575
:101442006D707479005265636F7264696E672044CF
:10145200617461006E3A2025642C2025642E256477
:101462002043005265636F7264696E672053746F24
:1014720070004D656D6F72792069732066756C6CB2
:1014820021004D6F6E005475650057656400546805
:101492007500467269005361740053756E0045729F
:1014A2007200E201E601EA01EE01F201F601FA013F
:0214B200FE0139
:00000001FF
